:020000041000EA
:1000000000B5324B212058609868022188439860DF
:10001000D860186158612E4B002199600221596106
:100020000121F02299502B49196001219960352056
:1000300000F044F80222904214D00621196600F024
:1000400034F8196E01211966002018661A6600F04E
:100050002CF8196E196E196E052000F02FF8012189
:100060000842F9D1002199601B49196000215960AB
:100070001A491B48016001219960EB211966A021F2
:10008000196600F012F800219960164914480160C1
:100090000121996001BC002800D000471248134993
:1000A000086003C880F30888084703B5996A0420EC
:1000B0000142FBD001200142F8D103BD02B5186610
:1000C0001866FFF7F2FF186E186E02BD00000240BE
:1000D000000000180000070000035F00212200005C
:1000E000F4000018222000A00001001008ED00E03C
:1000F00000000000000000000000000074B24E7A12
:1001000000200420F7010010C3010010C5010010F9
:10011000C1010010C1010010C1010010C101001097
:10012000C1010010C1010010C1010010C701001081
:10013000C1010010C1010010C9010010CB01001065
:10014000CD010010CD010010CD010010CD01001037
:10015000CD010010CD010010CD010010CD01001027
:10016000CD010010CD010010CD010010CD01001017
:10017000CD010010CD010010CD010010CD01001007
:10018000CD010010CD010010CD010010CD010010F7
:10019000CD010010CD010010CD010010CD010010E7
:1001A000CD010010CD010010CD010010CD010010D7
:1001B000CD010010CD010010CD010010CD010010C7
:1001C00000BE00BE00BE00BE00BE00BE00F04BF888
:1001D000103800BEF2EB8871647B0710847B071037
:1001E0003402001090A31AE700202149086006C8D5
:1001F00081F3088810471F48006800282FD10DA4FC
:100200000ECC002902D000F012F8F9E71A491B4A77
:10021000002000E001C19142FCD1194988471949E9
:1002200088471949884700BEFDE701C901C29A42C3
:10023000FBD37047847B0710C000002098AB0020E0
:10024000602608100000042000000420602608102A
:1002500000100420001004200000000070470B482C
:1002600052F03EFE0047EFF30580C0B27047000039
:1002700008ED00E0000000D0A0AB0020CCF403208B
:10028000612305104D1C00108524051057560000F1
:1002900006005250ABB36053B073071006005250C3
:1002A000861C0302F4900610060052505422A29DB0
:1002B000C073071005005250DE65F4686026081010
:1002C000F8B5C04610B5064C2378002B07D1054B76
:1002D000002B02D0044800E000BF0123237010BDB2
:1002E000E03403200000000098DE0510044B10B538
:1002F000002B03D00349044800E000BF10BDC046F6
:1003000000000000E434032098DE0510C90000203E
:1003100095070010A1080010218B02100573002022
:10032000B174002065870210C90300103105001068
:10033000953700108D07002075C7001091C8001078
:100340009D600020E89B0020E09B0020CD780110FC
:10035000EC9B00202CBA032084BD032020CE032078
:100360005987021051380010CCC9032054F40320DF
:1003700050F40320E49B00202C9C0020D93F001067
:10038000150A0510050A051020350320309C0020B1
:10039000E503001011140020ACC703203D37051001
:1003A00075C50110C17F0110C1000020ED030010D0
:1003B000F5030010FD030010050400100D040010EB
:1003C00039040010C9000020D023420104481B0654
:1003D000801842685B680120D340002118407047B4
:1003E00030E4051010B553F021F910BD10B553F0ED
:1003F00050F810BD10B553F025F810BD10B553F0EE
:1004000018F810BD10B553F026F810BDF8B5060069
:100410000F0014001D0053F09DF8002809D12B0097
:1004200022003000390053F07FF8431E98414042CB
:10043000F8BD0120FCE7C0467047C046F8B57723F9
:10044000314A0400D75C002F3FD07C1E63425C41E0
:100450002E4B20229C466442A40BA4036444A3694F
:10046000FF201A4094462A4D2A4E2B6831680133EA
:10047000DA17120E9B1803409B1A8B42F5D0082105
:100480002B68254AD1542B680133DA17120E9B18BA
:1004900018406346801A2860002B15D1382270332B
:1004A000A363636B21001A40802334315B010B434B
:1004B0001A600722616B013F0A401A607B1E9F4150
:1004C0003800143052F024FAF8BD002057F0E6FE50
:1004D0000028F9D0114D08202B68996859F0EAFEE0
:1004E00068220F4B5B7A934303D00E4A13680133A3
:1004F0001360002CE8D00C4B0C4A1A602B689868EB
:1005000059F0B4F9E0E7C046ACC7032000800340CF
:10051000483903204C39032048380320C0A100206B
:100520000076071050C70320D09A002030750000D5
:10053000F8B55746DE464E464546E0B50778002FEB
:1005400000D177E03D4B834698463D4B3D4C994664
:100550003D4D77234246D35C9C46002B50D0581E1D
:1005600043425841394B20229A464042800B800337
:1005700050448369FF211A40924623682A68013358
:10058000DE17360E9B190B409B1B9342F5D0236858
:100590002F4AD75423680133DA17120E9B181940DB
:1005A0005346891A2160002B15D13822703383639A
:1005B000436B01001A40802334315B010B431A6006
:1005C000416B072260460A4001381A60431E984179
:1005D000143052F09DF901239C46E3445B461F789A
:1005E000002FB6D14B461B68986859F03FF9194B5C
:1005F000194A1A60F0BCBB46B246A946A046F8BDEF
:10060000002057F04BFE0028E5D04B461B68380011
:10061000996859F04FFE6822104BDB5D934303D07D
:100620000F4A1368013313600D2FD4D101220C4BF4
:100630001A60D0E7024B9946D4E7C046ACC7032006
:10064000C0A10020483903204C390320008003401A
:1006500048380320D09A002030750000017607103A
:1006600050C70320F8B54E464546DE4657463E4B3A
:10067000E0B598463D4E3E4B45279946B3463D4C26
:100680003D4D77234246D35C9C46002B52D0581EEA
:1006900043425841394B20229A464042800B800306
:1006A00050448369FF211A40924623682A68013327
:1006B000DE17360E9B190B409B1B9342F5D0236827
:1006C0002F4AD75423680133DA17120E9B181940AA
:1006D0005346891A2160002B15D138227033836369
:1006E000436B01001A40802334315B010B431A60D5
:1006F000416B072260460A4001381A60431E984148
:10070000143052F005F901239C46E3445B461F7800
:10071000002FB6D14B461B68986859F0A7F8194BC3
:10072000194A1A6028F018F8F0BCBB46B246A94630
:10073000A046F8BD002057F0B1FD0028E3D04B469D
:100740001B683800996859F0B5FD68220F4BDB5DD6
:10075000934303D00E4A1368013313600D2FD2D197
:1007600001220B4B1A60CEE7ACC7032098DE0510C0
:10077000C0A10020483903204C39032000800340E9
:1007800048380320D09A0020307500000176071009
:1007900050C70320F0B5C646C3B29846772300B5CC
:1007A000354A0500D75C002F41D0781E434258419E
:1007B000324B20229C464042800B80036044836978
:1007C000FF211A4094462E4D2E4E2B68326801337D
:1007D000DC17240E1B190B401B1B9342F5D044461B
:1007E0002B68294AD4542B680133DA17120E9B1850
:1007F00019406346891A2960002B15D138227033BD
:100800008363436B01001A40802334315B010B4347
:100810001A600722416B013F0A401A607B1E9F410C
:100820003800143052F074F880BCB846F0BD002097
:1008300057F034FD0028F7D0FF20144E05403368F0
:100840002800996859F036FD6822114B5B5D93438F
:1008500003D0104A13680133136043460D2B02D1B5
:1008600001220C4B1A600C4B0C4A1A6033689868D2
:1008700058F0FCFFD8E7C046ACC703200080034017
:10088000483903204C39032048380320C0A10020F8
:100890000176071050C70320D09A00203075000061
:1008A00010B55DF059F9144B1B68002B16D1134B92
:1008B00013491A680B689A420DD00B68114AD05C34
:1008C000FF220B68C0B20133DC17240E1B19134042
:1008D0001B1B0B6010BD01204042FBE70021802262
:1008E000094B0A4819600A4B5200196055F0D6FBB3
:1008F0000121084859F016FF4CC703204038032057
:10090000443803204037032038CE0320BCE50320C1
:10091000B4D4032000EC0320BB4BF0B54646984608
:100920004F46D64600234246C0B5B84CB84EB94FE4
:1009300013605DF011F93368002B00D04CE13A6888
:1009400023689A4253D0FF222368B34DE85C2368A2
:100950000133D917090E5B1813405B1A23604F2827
:1009600062D15DF0F9F83368002B00D034E13A68C9
:1009700023689A4245D0FF222368E85C236801334C
:10098000D917090E5B1813405B1A2360502845D015
:10099000512800D1F8E0522800D10BE1532800D1B2
:1009A0000AE1322833D15DF0D7F83368002B00D04C
:1009B00021E13A6823689A4200D1DBE0FF222368F4
:1009C000E85C23680133D917090E5B1813405B1AE2
:1009D00023600300B320522B21D04F218F4A1B20CC
:1009E00011608F4A1D3911608E4A136017E043462B
:1009F0001B681D2B9DD901204042884B18601B208D
:100A00000DE043461B68312BABD9012040424F22F9
:100A1000824B1A60824B18601B2000E09120E0BCE2
:100A2000BA46B146A846F0BD5B28E6D15DF094F821
:100A30003368002B00D0CFE03A6823689A4218D080
:100A4000FF222368E95C2368C9B20133D817000E7E
:100A50001B1813401B1A89462360412979D042296B
:100A600000D18FE0432900D1A2E0442908D182209F
:100A7000D5E743461B68312BD8D901235B42994601
:100A80005DF06AF83368002B00D0B4E03A68236860
:100A90009A4256D0FF222368E95C2368C9B2013329
:100AA000D817000E1B1813401B1A8A4623607E2994
:100AB0001DD14B46312B77D0322B00D186E0332B22
:100AC00000D185E0342B71D0352B00D182E0362B5C
:100AD00074D05B22514B1B201A604A46504B1A605F
:100AE000504B19609BE743461B68592B33D85DF088
:100AF00033F83368002B7ED13A6823689A42F2D0EB
:100B0000FF212368EA5C2368D2B20133D817000EB4
:100B10001B180B401B1A236013007E2A1DD14A4666
:100B2000312A33D0322A18D15246303A012A38D9E4
:100B30005246333A012A46D95246352A0DD1B320BE
:100B40006DE743461B68452B9AD901235B429A46C1
:100B5000CDE7802063E701235B425B212F4A1B2006
:100B6000116049462E4A116051462E4A11602E4AA4
:100B7000136054E743461B68452B00D813E7012355
:100B80005B422AE781204AE7922048E75246313A01
:100B9000042A15D95246373A022ADED850465F3029
:100BA0003DE7504669303AE7862038E7872036E748
:100BB000832034E7932032E7942030E789202EE722
:100BC000504660302BE75046683028E7842026E7FF
:100BD0007F2024E7882022E70023144A00211360A5
:100BE000134A136080225200124855F057FA01212F
:100BF000114859F097FD002180220C4B52001960DA
:100C00000B4B1960F0E7C0463CC00320443803207A
:100C10004CC703204038032040370320E09A0020CF
:100C2000E49A0020E89A0020EC9A002038CE0320B5
:100C3000B4D40320BCE5032000EC0320F0B5C64685
:100C4000772300B5364A0400D35C0D009846002B8C
:100C500042D0581E43425841324B20229C464042CB
:100C6000800B800360448369FF211A4094462E4D17
:100C70002E4E2B6832680133DF173F0EDB190B4015
:100C8000DB1B9342F5D02B68294AD4542B680133DF
:100C9000DA17120E9B1819406346891A2960002B37
:100CA00016D1382270338363436B01001A408023CE
:100CB00034315B010B431A6047460722416B013F09
:100CC0000A401A607B1E9F413800143051F020FE0C
:100CD000200080BCB846F0BD002057F0DFFA0028A5
:100CE000F6D0144E20003368996859F0E3FA682270
:100CF000114B1B5D934303D0104A136801331360FB
:100D00000D2C02D101220D4B1A60002DE0D00C4BAE
:100D10000C4A1A603368986858F0A8FDD8E7C046B6
:100D2000ACC7032000800340483903204C3903201E
:100D300048380320C0A100200176071050C70320C7
:100D4000D09A002030750000044B1868044B1B68D3
:100D5000C01A01D50130FF307047C046403803202B
:100D600044380320204B70B51C68621C0DD01F490D
:100D700020000A681A601E4A13680B601D4B196830
:100D80001160012252421A6070BD5CF0E5FE1A4B00
:100D90001B68002B19D1194B19491A680B689A4224
:100DA00011D00B68174AD55CFF220B68E8B20133FB
:100DB000DC17240E1B1913401B1B0B601B2DE3D1EA
:100DC000FFF7AAFDE0E72000DEE7002180220E4BBE
:100DD0000E4819600E4B5200196055F05FF9012161
:100DE0000C4859F09FFCC046E09A0020E49A00208D
:100DF000E89A0020EC9A00204CC7032040380320DA
:100E0000443803204037032038CE0320BCE50320BC
:100E1000B4D4032000EC0320F0B54546DE464E4630
:100E20005746774BE0B59846764B04000D000026F8
:100E30009B4683B05CF090FE43461B68002B00D0BD
:100E400085E020005CF028FF431CF3D0002C16D175
:100E500092284FD093284BD0942800D086E06A4F38
:100E60003900280059F0CEFD684B1B78002B67D164
:100E700003B0F0BCBB46B246A946A046F0BD092867
:100E80003AD0082829D00A2824D00D2819D0682261
:100E90005F4B1B5C93430CD0002C0AD15B4BC7B259
:100EA0001B78002B41D10136FF2E06DC2F70013557
:100EB000C0E70136C7B2FF2EF8DD584602F0C8FC85
:100EC000F4E7002CB6D1514B1B78002BB2D051481F
:100ED000FFF72EFB00232B70CAE7002EAAD0002CB0
:100EE00003D14A4B1B78002B24D1013E013DA1E7E1
:100EF000494FB5E7494FB3E7F3439A462023AA4445
:100F0000994653463700A2461C000137FF2F02DDE9
:100F1000584602F09DFC4A46EB199B1BE255BA0766
:100F2000F3D154461D003E0084E701213800FFF74D
:100F300085FEB8E73A48FFF7FBFA013E013D79E745
:100F40003800FFF7F5FA3348FFF7F2FA90E700238D
:100F5000344A00211360344A34481360802252001E
:100F600055F09CF80121324859F0DCFB9A2801D158
:100F7000304F75E79B2801D12F4F71E79C2801D195
:100F80002E4F6DE7952804D12D4F002F00D178E723
:100F900066E7962801D12B4F62E7972801D12A4FA7
:100FA0005EE7982801D1294F5AE7992825D00928CA
:100FB00000D066E7154B37009946F3439A460194F3
:100FC000AA4401E0BB0714D00137FF2F02DD5846C9
:100FD00002F03EFC53462022DA554B461B78EC19B2
:100FE000A41B002BEED001212020FFF727FEBB071A
:100FF000EAD125003E00019C1CE7154F30E7C046B2
:101000004CC7032000DF0510D0DE0510489C0020EF
:10101000017607109C090610C8DE05109C83061097
:1010200014DF051038CE0320B4D40320BCE5032020
:1010300000EC0320D8DE0510E4DE0510F4DE051018
:101040006CC80320ACC80320ECC803202CC90320C3
:101050006CC9032070B5174C05000100200059F041
:101060008DFC002824D0280059F0D4FC124B411EDE
:10107000020099421CD81149884208D01B1AE31873
:101080000132187819009854013BA142F9D1290086
:10109000200059F0B7FC094BE35C002B08D0064B4D
:1010A00000229C46644462702378013C002BFAD1F4
:1010B00070BDC046C8E70320FE030000FF03000028
:1010C000F0B5DE464E4657464546E0B5CB4BCC4ED6
:1010D0009B465B7B99B030001C00049359F09AFC4E
:1010E000A04200D350E2C74B30001B68013B059380
:1010F000FFF71EFA300059F08DFC00239946029349
:1011000001930393C04B05009846C04B4F469A4647
:1011100043461868431C4AD04246BD4B19681160CB
:10112000BC4A11681960BC4B196811600122524217
:101130001A60092800D102E207AB9946C4B24A46B8
:101140001C70002353704B46B9461F00231FDBB2AF
:10115000982B03D8B14A9B00D3589F462300203BCD
:101160005E2B0CD8300059F055FC019A002A00D1B2
:1011700046E2049B0292013B984200D21CE206AB7D
:1011800041223800591D5CF077FE3C78002CDDD1FF
:10119000300059F03FFC431B5A1E9341019A5B42B9
:1011A0001A40434618684F460192431CB4D15CF084
:1011B000D3FC9B4B1B68002B00D059E2994B1A685B
:1011C00053461B689A42A3D05346974A1B68FF2197
:1011D000D25C53461B68D0B20133DC17240E1B19B6
:1011E0000B4051461B1B0B601B2AA2D1FFF794FB3F
:1011F000431C8DD09DE7300059F00CFCA842BED9AD
:10120000725D7319002A04D05A781A700133002ACB
:10121000FAD12C1E05D00020013CFFF70FF9002C5D
:10122000F9D13000FFF784F900212020FFF706FDF7
:101230000020FFF703F9300059F0ECFB0400854271
:1012400000DB13E20020013CFFF7F8F8A542F9D1DA
:10125000C4E0029B002B92D103E00020FFF7EEF8E0
:10126000013D002DF9D1714B1B68986858F0FEFACA
:101270004B46002B00D0E4E1337000230393300091
:1012800059F0C8FB059B9C46049B6044834200D8F0
:10129000D0E13000FFF74CF9300059F0BBFB0500FE
:1012A0006348FFF745F96AE7002D00D167E7300092
:1012B00059F0B0FBA84201D1012301930020013D68
:1012C000FFF7BCF8002DF9D1584B1B68986858F00F
:1012D000CDFA54E7002D00D151E7300059F09AFBC8
:1012E000A84200D161E10120FFF7A8F8013D46E7DF
:1012F0000123019A5A40019241E731000020FFF793
:101300008BFD4C48FFF714F919B0F0BCBB46B24650
:10131000A946A046F0BD029B002B00D02FE703E0BA
:101320000020FFF78BF8013D002DF9D13F4B1B68E2
:10133000986858F09BFA039B002B00D12BE14B4699
:101340003D4CE518280059F065FB4B460133181851
:10135000235C002B00D121E1384B984200DD1DE1D8
:10136000814625181AE1300059F054FBA84200D8F4
:1013700005E7705D0121FFF761FC0135FFE6002DF7
:1013800000D1FCE66A1E0292B318B25C002A04D0B7
:101390005A781A700133002AFAD12C000020013C3F
:1013A000FFF74CF8002CF9D13000FFF7C1F800210D
:1013B0002020FFF743FC0020FFF740F8300059F0F1
:1013C00029FB029B0400834200DB4FE10020FFF772
:1013D00035F82300013C9D42F8D1029D134B1B6858
:1013E000986858F043FA01230293C8E606AB11222D
:1013F0001349581D54F058FEC1E6C046ACC703203F
:10140000BCE5032050C70320E09A002044380320A5
:10141000E49A0020E89A0020EC9A002090DF051062
:101420004CC703204038032040370320C0A10020D0
:1014300088DF05109C090610C8E70320FE030000A2
:1014400064DF051006AB0B229249581D54F02CFEA8
:1014500095E6E0235A465B00D35C002B00D18EE674
:10146000594606ABC131FF31581D59F0CBFA86E61B
:10147000C0235A465B00D35C002B00D17FE659465F
:1014800006AB8131FF31581D59F0BCFA77E606AB47
:101490000E228149581D54F007FE70E606AB072264
:1014A0007E49581D54F000FE69E606AB06227C49D1
:1014B000581D54F0F9FD62E6A0235A465B00D35C48
:1014C000002B00D15BE6594606AB4131FF31581D78
:1014D00059F098FA53E680235A465B00D35C002B00
:1014E00000D14CE6511C06ABFF31581D59F08AFA69
:1014F00045E6C0235A46D35C002B00D13FE659464F
:1015000006ABC031581D59F07DFA38E606AB07220C
:101510006449581D54F0C8FD31E6741E04E00135DD
:101520000021605DFFF78AFB300059F073FAA84292
:10153000F5D85D4B1B68986858F098F91FE607AB23
:1015400099464A46594B03CB03C21B7813705B463E
:101550005C78042C6AD00DD8022C69D0032C11D1F0
:101560000321280051F0EEFC00234A46641A13556B
:101570002024E8E50723082C04D12B40E41A4A462E
:10158000002313552024DEE53000FEF7D1FF484844
:1015900002F05EF9A7E5474C4C44250029003000D5
:1015A00059F030FA0123039369E6012301200193E6
:1015B000013DFEF743FFE2E5854268DC401B6B1C02
:1015C000421C7119F01802935CF056FC74557019A6
:1015D000FEF7AEFF300059F01DFA029D040085426F
:1015E00006DA0020FEF72AFF029B013CA342F8D155
:1015F0002D4B1B68986858F039F9019B0293BEE5A2
:101600006B1C301842700121029320007455FFF7C3
:1016100015FB029B059A9C4662441300049A934270
:1016200000DB6AE60123029D0293A8E50323A4E7F9
:101630000123A2E73000FEF77BFF1D4802F008F906
:1016400027E602235B429C46E1444B46194C04E0EA
:101650005A1EA15C002902D01300002BF8DC994629
:1016600021003000494459F0CDF908E60500B5E6FF
:101670000023114A00211360104A300013608022B9
:10168000520054F00BFD01210D4859F04BF86B1C32
:1016900002939BE758DF051078DF051048DF05103F
:1016A00040DF051050DF0510C0A1002034DF051019
:1016B00018DF0510C8E7032038CE0320B4D4032078
:1016C00000EC0320F8B5214D214E224F224C286812
:1016D000431C0CD0214B1A682A60214A11681960FA
:1016E000204B19681160012252421A60F8BD5CF06B
:1016F00033FA3368002B19D13A6823689A42E6D04E
:101700002368194AD35CFF229C46D8B22368013370
:10171000D917090E5B1813405B1A236063461B2B15
:10172000E4D1FFF7F9F8431CD0D0DFE700230F4ADC
:10173000002113600E4A0F4813608022520054F0BB
:10174000ADFC01210C4858F0EDFFC046E09A0020A6
:101750004CC703204038032044380320E49A00207B
:10176000E89A0020EC9A00204037032038CE03206E
:10177000B4D40320BCE5032000EC0320034B002875
:1017800002D001221A6070471860FCE70C9B002011
:10179000F8B54E464546DE4657463D4BE0B59846C1
:1017A0003C4E3D4B0D279946B3463C4C3C4D772370
:1017B0004246D35C9C46002B50D0581E43425841B1
:1017C000384B20229A464042800B80035044836964
:1017D000FF211A40924623682A680133DE17360E2D
:1017E0009B190B409B1B9342F5D023682E4AD7547C
:1017F00023680133DA17120E9B1819405346891AD1
:101800002160002B15D1382270338363436B0100B4
:101810001A40802334315B010B431A60416B07226D
:1018200060460A4001381A60431E9841143051F056
:101830006FF801239C46E3445B461F78002FB6D126
:101840004B461B68986858F011F8184B184A1A60F4
:10185000F0BCBB46B246A946A046F8BD002056F0F3
:101860001DFD0028E5D04B461B683800996858F0EC
:1018700021FD68220F4BDB5D934303D00E4A1368B2
:10188000013313600D2FD4D101220B4B1A60D0E726
:10189000ACC703209C090610C0A1002048390320D2
:1018A0004C3903200080034048380320D09A0020A0
:1018B000307500000176071050C70320F0B5DE46F2
:1018C00057464E4645460B000A21E0B589B003AEA7
:1018D00002000091300001F05DFF3778002F00D149
:1018E00078E03E4BB34698463D4B3E4C99463E4DC4
:1018F00077234246D35C9C46002B51D0581E43426E
:1019000058413A4B20229A464042800B8003504473
:101910008369FF211A40924623682A680133DE1743
:10192000360E9B190B409B1B9342F5D02368304A1F
:10193000D75423680133DA17120E9B181940534607
:10194000891A2160002B15D1382270338363436BD1
:1019500001001A40802334315B010B431A60416B54
:10196000072260460A4001381A60431E984114302D
:1019700050F0CEFF01239C46E3445B461F78002FC6
:10198000B6D14B461B68986857F070FF194B1A4A3E
:101990001A6009B0F0BCBB46B246A946A046F0BDED
:1019A000002056F07BFC0028E4D04B461B68380032
:1019B000996858F07FFC6822104BDB5D934303D09D
:1019C0000F4A1368013313600D2FD3D101220C4B42
:1019D0001A60CFE7024B9946D3E7C046ACC7032055
:1019E000C0A10020483903204C3903200080034067
:1019F00048380320D09A0020307500000176071087
:101A000050C70320F0B5C64606000D002C2000B5D7
:101A1000174C88B000210134FFF710F92078002816
:101A2000F8D1144B03AC98461B68986857F01EFF1A
:101A3000114F124B20003B600A23320000932B0011
:101A400001F0A8FE2078002806D000210134FFF71D
:101A5000F5F820780028F8D143461B68986857F0BD
:101A600005FF064B3B6008B080BCB846F0BDC046E1
:101A7000F4E10510C0A10020D09A002030750000CC
:101A8000F0B5DE4657464E4645460B002021E0B5F0
:101A90008BB005AE02911C3902000191300000911B
:101AA00002F09AFA3778002F00D178E03D4BB34628
:101AB00098463D4B3D4C99463D4D77234246D35C7D
:101AC0009C46002B51D0581E43425841394B20228E
:101AD0009A464042800B800350448369FF211A409C
:101AE000924623682A680133DE17360E9B190B4095
:101AF0009B1B9342F5D023682F4AD75423680133A8
:101B0000DA17120E9B1819405346891A2160002BD0
:101B100015D1382270338363436B01001A40802350
:101B200034315B010B431A60416B072260460A4067
:101B300001381A60431E9841143050F0E9FE012329
:101B40009C46E3445B461F78002FB6D14B461B688A
:101B5000986857F08BFE194B194A1A600BB0F0BC0D
:101B6000BB46B246A946A046F0BD002056F096FB03
:101B70000028E4D04B461B683800996858F09AFB5F
:101B80006822104BDB5D934303D00F4A1368013387
:101B900013600D2FD3D101220B4B1A60CFE7024BFC
:101BA0009946D3E7ACC70320C0A1002048390320E1
:101BB0004C3903200080034048380320D09A00208D
:101BC000307500000176071050C70320F0B5C646F7
:101BD00006000F002C2000B5184C8AB000210134FB
:101BE000FFF72CF820780028F8D1154B05AC984663
:101BF0001B68986857F03AFE124D134B20002B607B
:101C0000202302931C3B0193009332003B0002F01F
:101C1000E3F92078002806D000210134FFF70EF800
:101C200020780028F8D143461B68986857F01EFEBC
:101C3000054B2B600AB080BCB846F0BDF4E105103E
:101C4000C0A10020D09A002030750000F0B5DE461B
:101C500057464E464546E0B58FB00DF0D5FF6C486F
:101C6000417D037D827D09021943C37D1204114326
:101C70001B060B4305D043789A1E022A33D9082B42
:101C800031D00DF0E1FF0022624B1A6026F064FDB6
:101C90005F48417F037F827F090219431204C37F9B
:101CA00011435D4A1B060B43934260DC58494B7F4E
:101CB0000C7F8A7F1B022343CC7F1204134324062C
:101CC0001C43564BE218564B9A4200D9554C200003
:101CD00007AB06AA05A94EF0F1FE00284BD1210062
:101CE000514850F0EBFB4A4A13780B2BC9D8537F6D
:101CF000147F917F1B022343D47F09040B432406E6
:101D00001C43464BE118464B9942BAD83520342340
:101D1000155CD15C2D020D433621505C0131515CC4
:101D200000040543090629434B43404950798C463A
:101D300015799179D67900020543090429433606BD
:101D40000E43517A157A907A0902D27A0D43000433
:101D5000634428431206DB0A0243B218DB029B18D5
:101D6000A022920293428CD12B4B9C42AFDD0D20DE
:101D700050F0B6FF9AE7079A069905984EF062FE72
:101D800001200AF083FC00200AF080FCFA250C21D7
:101D9000274856F0B3FF2300AD006B43012200211A
:101DA0000093062050F0A8FB0522224B184C1A6025
:101DB000214A22485A60617F237FA27F090219438A
:101DC000E37F120411431B060B436B431C4A0021A3
:101DD000136054F0D1FB0DF017FF54F079FB57F06E
:101DE00081F80222174B1A604FF024FC08AB0293D3
:101DF00000230193144B154A009301235B424FF0DB
:101E0000E9FC7723E45C002C31D1114E114D29E01F
:101E1000ACC7032098AB0020400D03008044FFFFB7
:101E2000E01C030048E80100F8E10510FF0700008E
:101E3000A4E5032010E000E0FFFFFF0070A10020F8
:101E400024F3032000E00440ED00002018FCFFFF15
:101E5000503103208713000032687368002B06DCC2
:101E600000D1EBE0200056F019FA0028F4D000244D
:101E700014F0F2F92CF0CEFEC54B1C60C54B1C6073
:101E8000C54B1C60C54B1C600AF062FC0A20002197
:101E90005BF082FEC24B1C6002F0C4FA20003EF0F0
:101EA0000DFD200037F028FF41F0D4F80D20BD4B88
:101EB000BD4940421C6057F099FBFEF7F1FC431C02
:101EC000FBD10FF083F8B94BB94A1B68934214D089
:101ED000B84A934200D108E1B7490878002800D0F9
:101EE000B4E0B64A934208D0B548FEF721FBAF4AAA
:101EF000B04B12689A4200D1F7E00022B14BB248D1
:101F00001A70B24B1A68B24B1A6058F0FFFB0028E7
:101F100000D1B7E0AD4B1A68AD4B1A600022A94B57
:101F20001A70032301279A46AA4B00249B46AA4B0A
:101F300099465B4652461C604B461A700122A74BDD
:101F40001A70A74B1C605BF06FFEA64B1C60A64B83
:101F50001B68012B02DDA548FEF7EAFA964D934E69
:101F60006A7C2B7C12021A43AB7C1B041A43EB7C69
:101F70001B0613433ED09E4A1278002A3AD19D4A4E
:101F800032609D4A93425DD09C48FEF7D1FA9C494D
:101F90002000FEF741FF88494A7C0B7C12021A435D
:101FA0008B7C1B041A43CB7C1B061343924A93423F
:101FB00001D126F0D1FB924B98461B78002BCFD055
:101FC000002190484FF0B8FE404657F039FB051EFF
:101FD00001D126F0C1FB78494A7C0B7C12021A43DE
:101FE0008B7C1B041A43CB7C1B061343AB42B5D13D
:101FF0007F4B1F706D4B20001C6001F08DFE694D02
:102000002968002905D180485BF00EFF002800DB1D
:1020100081E07E48FEF78CFA624B1C60FFF750F8B7
:10202000774D2800FFF716F82B78002B00D180E7BA
:102030002C002378202B5FD10134FAE7AA4200D884
:1020400010E714E77248FEF773FAA0E7A024431ED6
:10205000640263436F4A14684A79E4186E4B1202B3
:102060001D680B791A438B791B041A43CB791B0625
:10207000134300229B089B00934252D0A158A950C1
:102080000432F9E7644B1B681B78012B27D002F060
:10209000ADFE012001F040FE002160485BF0C4FE6F
:1020A000002802DB5E485BF00FFD434C2378002BD9
:1020B00000D136E73D4A5B4B12689A4200D130E7C7
:1020C00002F010F9012001F027FE534B1868037845
:1020D000012B07D0002323700EF0E4FB21E75BF017
:1020E00093FED6E75BF0F0FC1BE701224E4B4F4816
:1020F0001A70FEF71DFA00E72A2B19D0380002F0FB
:1021000019FF30485BF0E0FC8022002152003C487F
:1021100053F0C4FF08E742482F600C305BF0D4FC5A
:102120007AE7434B18602B78012B00D1E5E6DBE61C
:10213000200058F06FFC231D421C210018005BF0AA
:102140009BFE52232226237003336370073BA37048
:102150002A3B20212000E370267158F0AFFB051EBA
:102160000CD02C23037058F055FC2900421C681C2D
:102170005BF082FE2E702023E370BFE7200058F052
:1021800049FC02222B49201853F08EFFF3E7C0468A
:102190004038032044380320483903204C390320B9
:1021A000B0C9032028BA03206506001098AB0020B0
:1021B0000C2700000E270000ACC703200F270000EB
:1021C00044E2051028F3032000EC03201CED03205B
:1021D000503903204CC70320C89A0020489C002097
:1021E00044C703207C39032050C703209C090610F4
:1021F00093F403200D270000FFE0F505E8E2051049
:10220000BCE50320C0C62D0004E3051010E3051053
:10221000BCE20510049B0020CCC90320B0E20510ED
:1022200004E405100B27000098F403202CE20510AD
:102230004CBD032014E30510F8B54D4E4D4C3368EA
:102240004D4D013333602368C2B2EA54236807005E
:10225000013323601F232168CA17D20E89180B404F
:102260009B1A23602368002B3ED032683B0A013260
:1022700032602268DBB2AB542368013323601F2332
:102280002168CA17D20E89180B409B1A2360236855
:10229000002B5CD032683B0C013232602268DBB22A
:1022A000AB542368013323601F232168CA17D20E61
:1022B00089180B409B1A23602368002B36D03368A3
:1022C0003F0E013333602368EF54236801332360EA
:1022D0001F232168CA17D20E89180B409B1A23604E
:1022E0002368002B11D0F8BD306820222900203847
:1022F00053F0DAFE01235B422B606B60AB60EB6056
:102300002B616B61AB61EB61AFE730682022290084
:10231000203853F0C9FE01235B422B606B60AB6039
:10232000EB602B616B61AB61EB61DCE73068202215
:102330002900203853F0B8FE01235B422B606B600C
:10234000AB60EB602B616B61AB61EB61B7E7306851
:1023500020222900203853F0A7FE01235B422B6086
:102360006B60AB60EB602B616B61AB61EB6191E724
:1023700048EE03205CEC0320E02C03200023F0B5A2
:10238000C6461F27984600B5614E624D624C2368D1
:10239000002B25D042463368013333602368EA546A
:1023A0002368013323602368DA17D20E9B183B4061
:1023B0009B1A23602368002BE9D130682022290072
:1023C000203853F071FE01235B422B606B60AB60E1
:1023D000EB602B616B61AB61EB612368002BD9D1A2
:1023E000FF223368013333602368EA5423680133E2
:1023F00023601F232168CA17D20E89180B409B1A2D
:1024000023602368002B3ED0FF2233680133336002
:102410002368EA542368013323601F232168CA1705
:10242000D20E89180B409B1A23602368002B5DD0C5
:10243000FF223368013333602368EA542368013391
:1024400023601F232168CA17D20E89180B409B1ADC
:1024500023602368002B38D0FF22336801333360B8
:102460002368EA542368013323601F232168CA17B5
:10247000D20E89180B409B1A23602368002B13D0BF
:1024800080BCB846F0BD306820222900203853F0C7
:102490000BFE01235B422B606B60AB60EB602B613A
:1024A0006B61AB61EB61AFE7306820222900203817
:1024B00053F0FAFD01235B422B606B60AB60EB6075
:1024C0002B616B61AB61EB61DAE730682022290098
:1024D000203853F0E9FD01235B422B606B60AB6059
:1024E000EB602B616B61AB61EB61B5E7306820227B
:1024F0002900203853F0D8FD01235B422B606B602C
:10250000AB60EB602B616B61AB61EB6190E7C04648
:1025100048EE0320E02C03205CEC0320F0B5DE46FF
:1025200057464E4645468022E0B5DFB0070006918B
:102530005200D9491EA853F0B7FDD84B9A465246CF
:10254000D74B126899461A60D64B984659791A7932
:102550009B79090211431B0419434346DA79534618
:10256000120618680A43FF2153F098FD3B78002BB0
:1025700001D100F07EFF002205920492CA4ABB46B8
:102580001700CA4ECA4C68205A4684463100049847
:10259000039414E0092B6DD06446C648C05CA04388
:1025A00006D0481C0B70831BFE2B00DDF2E10100FE
:1025B0005378013293462878002B00D1F3E01500C0
:1025C0000D2B03D00A2BE5D10D28E5D0013293461F
:1025D000039C049300230B703378002B0AD15B46D5
:1025E0001B78002B00D112E1B24AD35C68229343DE
:1025F00000D1B7E1002002F09DFCA74D059B5B1BBD
:102600000393039B2A78E918002A03D16B78002BE7
:1026100000D1DDE04B4649461B68013501330B60B4
:102620001F212368FA542368013323602368DA17D3
:10263000D20E9B180B409B1A23602368002B00D1FD
:10264000B4E04B46196853461B684246C91A4346D4
:1026500050791B790002184343469279DB791204C2
:1026600010431B060343053B9942CAD3924801F02D
:10267000EFF8C6E70B009346039C03E01F3A0242C3
:1026800000D187E018002022013302701900981B46
:10269000FE28F3DD4B464A461B68BB4601331360F8
:1026A00000222368FA542368013323601F23216822
:1026B000CA17D20E89180B409B1A23602368002B7F
:1026C00000D13DE14B464A461B6859460133136031
:1026D00000222368CA542368013323601F23216822
:1026E000CA17D20E89180B409B1A23602368002B4F
:1026F00000D112E14B464A461B685946013313602C
:1027000000222368CA542368013323601F232168F1
:10271000CA17D20E89180B409B1A23602368002B1E
:1027200000D1E7E0FF261F255F462368002B27D056
:102730004B464A461B68013313602368FE542368E6
:10274000013323602368DA17D20E9B182B409B1AA3
:1027500023602368002BE8D14B46186820223900FB
:10276000203853F0A1FC01235B423B607B60BB60DF
:10277000FB603B617B61BB61FB612368002BD7D1B0
:102780004D4801F065F85FB0F0BCBB46B246A946C3
:10279000A046F0BD5A4653780132934628780394F8
:1027A000002B00D00BE7039C049013E74B461868FE
:1027B00020223900203853F077FC01235B423B6034
:1027C0007B60BB60FB603B617B61BB61FB6138E7A9
:1027D0004A460D004946126801320A602268BB541D
:1027E0002368013323601F232168CA17D20E89187A
:1027F0000B409B1A23602368002B00D1B8E02B000C
:10280000013305935B461B78002B00D0BBE6BB462B
:102810004B464A461B685946013313600022236821
:10282000CA542368013323601F232168CA17D20EBC
:1028300089180B409B1A23602368002B01D100F0FC
:102840008FFEFFF79BFD4B461B68079353461D68A1
:102850000123039300232E780493FF2E00D118E365
:102860005B460993059B08949B4601239C46E344E1
:10287000002E05D16E786B1C002E00D102E31D00E6
:10288000012E03D10D4B1D606E780135022E19D13A
:10289000EE78033516E0C04628F30320CCC90320A8
:1028A00048EE0320ACC70320E02C0320BCE5032046
:1028B0005CEC03200176071018E305107C39032037
:1028C0006E780135202EFBD0032E00D1C8E2564B86
:1028D000564C1B78B34260D0200002F0BBFA86420F
:1028E0005AD02B78002B03D06B780135002BFBD10D
:1028F0000026BAE74B46186820225946203853F084
:10290000D3FB01235A465B42136053609360D3604C
:10291000136153619361D36104E74B461868202229
:102920005946203853F0C0FB01235A465B421360DE
:1029300053609360D360136153619361D361D9E6AF
:102940004B46186820223900203853F0ADFB012394
:102950005B423B607B60BB60FB603B617B61BB615A
:10296000FB61AFE65B465B78002B00D042E64EE7AA
:102970004B46186820223900203853F095FB01237C
:102980005B423B607B60BB60FB603B617B61BB612A
:10299000FB6134E7039C7DE62E78200002F05AFAB2
:1029A000864201D100F0A2FD214802F053FA4B46C5
:1029B0004A461B68C7B20433136013686C1C059346
:1029C0001368043313606B78202B00D0ABE1002335
:1029D0000025039363780134202BFBD0002D00D118
:1029E000A3E1144E002B05D0272B29D163780134A5
:1029F000002BFBD16378651C002B00D1D5E1012BA6
:102A000003D10D4B1D60A378A51C022B04D1EB78DC
:102A1000033501E06B780135202BFBD09F4200D1BC
:102A200075E12C00DEE7C0469FF4032030E305107B
:102A30005CE30510017607107C39032063780134CC
:102A4000202BFBD04422F35C1A4200D104E24B4617
:102A5000196853461B684246C91A434650791B7988
:102A60000002184343469279DB79120410431B0697
:102A70000343053B994200D3EAE123781D00303D32
:102A8000392B07D90322F15C0A40022A00D1203BEE
:102A90001D00373D44226378F35C1A4200D1D3E134
:102AA0004B46196853461B684246C91A434650793B
:102AB0001B790002184343469279DB7912041043D4
:102AC0001B060343053B994200D3B9E163782D010E
:102AD000392B00D872E10322F15C0A40022A00D1AE
:102AE000203B373B1D434422A378F35C1A4200D1BC
:102AF0007EE14B46196853461B684246C91A434655
:102B000050791B790002184343469279DB7912040D
:102B100010431B060343053B994200D364E1A378AD
:102B20002D01392B00D858E10322F15C0A40022A1A
:102B300000D1203B373B1D434422E378F35C1A422B
:102B400000D14DE14B46196853461B684246C91AED
:102B5000434650791B790002184343469279DB794A
:102B6000120410431B060343053B994200D357E16F
:102B7000E3782D01392B00D82CE10322F15C0A40C7
:102B8000022A00D1203B373B1D4344222379F35CCA
:102B90001A4200D14CE14B46196853461B68424625
:102BA000C91A434650791B7900021843434692796B
:102BB000DB79120410431B060343053B994200D303
:102BC00032E123792D01392B00D800E10322F15C99
:102BD0000A40022A00D1203B373B1D43442263793F
:102BE000F35C1A4200D117E14B46196853461B6843
:102BF0004246C91A434650791B790002184343469E
:102C00009279DB79120410431B060343053B99427A
:102C100000D3FDE063792D01392B00D8D4E00322E5
:102C2000F15C0A40022A00D1203B373B1D4344227D
:102C3000A379F35C1A4200D1E2E04B46196853468F
:102C40001B684246C91A434650791B790002184353
:102C500043469279DB79120410431B060343053B7C
:102C6000994200D3C8E0A3792D01392B00D8A8E000
:102C70000322F15C0A40022A00D1203B373B1D436E
:102C80004422E379F35C1A4200D1BDE04B46196857
:102C900053461B684246C91A434650791B790002C5
:102CA000184343469279DB79120410431B06034311
:102CB000053B994200D3BFE0E3792D01392B79D947
:102CC0000322F15C0A40022A00D1203B373B2B4310
:102CD0001A004B46494625001B68083504330B6033
:102CE000237A202B03D16B780135202BFBD003995D
:102CF000002900D195E6E02108001214104003904D
:102D0000114200D1B8E000222C0003926AE64B4643
:102D10001B680498059A043B9B1A81000AAA8B50F1
:102D2000431C0493DDE5002203929C4DEA5C92076C
:102D300004D15F2B02D09A4800F08AFD0721637806
:102D40000134EA5C1142FAD15F2BF8D02E2BF6D079
:102D5000202B04D163780134202BFBD0EA5C442182
:102D6000114201D100F01AFC6278A85C014204D043
:102D7000A078285C014200D033E6002B01D100F09E
:102D800013FC220063780134002BFAD193782200DF
:102D90000134012B03D1834B1C609378941C022BCC
:102DA00000D01EE6E37803341BE67F4800F050FDB8
:102DB000637824E6303B1A002A438AE7303B1D4300
:102DC00091E6303B1D435BE7303B1D432FE7303B33
:102DD0001D4303E7303B1D43D7E6303B1D43ABE6C5
:102DE000724800F035FDADE6714800F031FD96E621
:102DF0006E4800F02DFD7CE66D4800F029FD32E7BD
:102E00006A4800F025FD18E7684800F021FD3DE71D
:102E1000674800F01DFDFDE6644800F019FDE3E69B
:102E2000634800F015FDA3E6614800F011FDC8E617
:102E30005E4800F00DFDAEE65D4800F009FD3BE7A1
:102E40005B4800F005FD41E6584800F001FD27E62B
:102E5000574800F0FDFC10E6544800F0F9FCF6E598
:102E60006B780233ED182E78202E00D02FE56E7887
:102E70000135202EFBD02AE54E4800F0E9FC2C005D
:102E80002B78AFE55B460593099B089C9B46534610
:102E90001D684B46079A1A602E78FF2E00D193E2E8
:102EA000002303935B460793059B04949B460123F1
:102EB0009C46E344002E05D16E786B1C002E00D199
:102EC0007DE21D00012E03D1364B1D606E78013569
:102ED000022E04D1EE78033501E06E780135202E04
:102EE000FBD0032E00D15EE2334B344C1B78B3424F
:102EF0000ED0200001F0AEFF864208D02F78002FC0
:102F000003D06B780135002BFBD10026CFE72E785C
:102F1000200001F09FFF864200D1B0E2284801F076
:102F200099FFC7B22800FFF787F94B461B68039B40
:102F30006C1C9A005E1C0AABD058FFF77DF96B78C9
:102F4000202B00D096E1002563780134202BFBD0A4
:102F50000396002D00D18EE1104E002B05D0272BBB
:102F600032D163780134002BFBD16378651C002BD0
:102F700000D1BEE1012B03D10A4B1D60A378A51C33
:102F8000022B04D1EB78033501E06B780135202B5F
:102F9000FBD0BB42B3D02C00DFE7C0460176071060
:102FA00068E305107C390320B4E3051078E30510CD
:102FB00018E305108CE305109FF4032030E305109F
:102FC0005CE3051063780134202BFBD04422F35CD2
:102FD0001A4200D1E3E14B46186853461B6842464B
:102FE000C01A434651791B79090219434346927925
:102FF000DB79120411431B060B43053B984200D3B7
:1030000099E123781D00303D392B07D90322F15C6B
:103010000A40022A00D1203B1D00373D442263783C
:10302000F35C1A4200D182E14B46196853461B6893
:103030004246C91A434650791B7900021843434659
:103040009279DB79120410431B060343053B994236
:1030500000D368E163782D01392B00D860E10322A9
:10306000F15C0A40022A00D1203B373B1D43442239
:10307000A378F35C1A4200D16DE14B4619685346C0
:103080001B684246C91A434650791B79000218430F
:1030900043469279DB79120410431B060343053B38
:1030A000994200D353E1A3782D01392B00D834E1A4
:1030B0000322F15C0A40022A00D1203B373B1D432A
:1030C0004422E378F35C1A4200D13CE14B46196894
:1030D00053461B684246C91A434650791B79000281
:1030E000184343469279DB79120410431B060343CD
:1030F000053B994200D322E1E3782D01392B00D81A
:1031000008E10322F15C0A40022A00D1203B373B50
:103110001D4344222379F35C1A4200D12BE14B4634
:10312000196853461B684246C91A434650791B79B1
:103130000002184343469279DB79120410431B06C0
:103140000343053B994200D311E123792D01392B2B
:1031500000D8DCE00322F15C0A40022A00D1203BC7
:10316000373B1D4344226379F35C1A4200D1FAE0F5
:103170004B46196853461B684246C91A4346507964
:103180001B790002184343469279DB7912041043FD
:103190001B060343053B994200D3E0E063792D0110
:1031A000392B00D8B0E00322F15C0A40022A00D19A
:1031B000203B373B1D434422A379F35C1A4200D1E4
:1031C000E1E04B46196853461B684246C91A43461C
:1031D00050791B790002184343469279DB79120437
:1031E00010431B060343053B994200D3C7E0A37974
:1031F0002D01392B00D881E00322F15C0A40022A1C
:1032000000D1203B373B1D434422E379F35C1A4253
:1032100000D1BCE04B46196853461B684246C91AA8
:10322000434650791B790002184343469279DB7973
:10323000120410431B060343053B994200D3AAE046
:10324000E3792801392B5CD90322F15C0A40022A78
:1032500000D1203B373B18432500FEF7EDFF237AD2
:103260000835202B00D096E66B780135202BFBD05B
:103270002C0072E60396CE4DEA5C920704D15F2BD8
:1032800002D0CC4800F0E4FA072163780134EA5C0C
:103290001142FAD15F2BF8D02E2BF6D0202B04D17F
:1032A00063780134202BFBD0EA5C4421114200D129
:1032B00072E16278A85C014204D0A078285C0142E7
:1032C00000D049E6002B00D16BE122006378013485
:1032D000002BFAD1937822000134012B03D1B64B95
:1032E0001C609378941C022B00D035E6E3780334FD
:1032F00032E6B24800F0ACFA63783BE6303B1D435F
:1033000082E7303B1843A7E7303B1D4353E7303B90
:103310001D4327E7303B1D43FBE6303B1D43CFE613
:10332000303B1D43A3E6A64800F092FA92E6A5487A
:1033300000F08EFA78E6A24800F08AFA61E6A0482A
:1033400000F086FAD8E69F4800F082FABEE69C4874
:1033500000F07EFAA7E69B4800F07AFA8DE69848DE
:1033600000F076FA1AE7974800F072FA00E79448FE
:1033700000F06EFAE9E6934800F06AFACFE690486A
:1033800000F066FA33E78F4800F062FA19E78D48DB
:1033900000F05EFA3EE78A4800F05AFA50E78948A2
:1033A00000F056FA17E66B780233ED182E78202ECF
:1033B00000D099E56E780135202EFBD094E55B4670
:1033C0000593079B049C9B4601204042FEF734FF77
:1033D000FF261F255F462368002B25D04B464A4613
:1033E0001B68013313602368FE5423680133236094
:1033F0002368DA17D20E9B182B409B1A2360236890
:10340000002BE8D14B46186820223900203852F0B2
:103410004BFE01235B423B607B60BB60FB603B611A
:103420007B61BB61FB61D6E70DF0A2FA069B002B26
:1034300017D0654B1B68012B02DD6448FDF778F857
:103440006348FDF775F80A21059A62480332D317DD
:10345000009100F09FF95F48FDF76AF85E48FDF7BC
:1034600067F880221EA952005A4852F01DFEFFF74D
:103470008AF90593594B5A4C9B46FFF7C9F95948AD
:1034800001F0E8FC6B78C7B26C1C202B03D1637889
:103490000134202BFBD0233B5A4253411022E41825
:1034A0000023200000920193012200235AF0A4FC83
:1034B000C5B2012D6CD0AB1F012B69D9681EFEF778
:1034C000BBFE2378002B03D063780134002BFBD1A3
:1034D0004B461B68039B9A005E1C0AABD058FEF754
:1034E000ABFE2378202B00D12EE531E53D4801F0DD
:1034F000B1FC6B78C7B26C1C202B03D1637801340C
:10350000202BFBD0233B5A4253411022E4180023C6
:10351000200000920193012200235AF06DFCC5B2F5
:10352000012D31D0AB1F012B2ED94B464A461B68CB
:10353000043313602378002B03D063780134002B0D
:10354000FBD14B461B684A4605934B461B68043328
:1035500013602378202B01D1FFF73CFAFFF73EFAE6
:103560004B46186820225946203852F09DFD012311
:103570005A465B42136053609360D360136153619A
:103580009361D361FFF75DF9174800F061F9CCE76B
:10359000164800F05DF991E7627893E66278FFF7EC
:1035A000ECFB1300220097E613002200FFF7F0FB6C
:1035B0000176071068E305107C390320B4E3051099
:1035C00018E3051078E3051050C703209C09061086
:1035D000F0E3051028F30320F8E30510E02C0320A6
:1035E0005CEC03202CE305103CE30510CCE3051054
:1035F000F0B5DE4657464E464546E0B5CDB0140020
:1036000001928E220023884652000021050003907B
:1036100005A8049352F042FD404657F0FBF981465D
:10362000200057F0F7F904ABAB469A460326214F2A
:10363000029043461D787B5D3340022B00D1203D34
:10364000FF235C461D402378FA5C19003240022AB1
:1036500000D12039A94212D0002B01D00134F2E769
:103660005946504657F0CEF9039804A957F0CAF9C5
:103670004DB0F0BCBB46B246A946A046F0BD4A4696
:103680004146200057F0F4F90028E7D15B46E51ADF
:103690002A005946504652F007FD029B55449A466F
:1036A0001A00280001994C4452F0FEFCA346AA449B
:1036B000BFE7C04601760710F0B5C64600B50378EF
:1036C00004000025002B19D0FD26B0460136B44673
:1036D000FF27FD3E0BE0002D05D0202B29D02E2BFF
:1036E00029D16346037043780130002B06D0222B8A
:1036F000F1D143780130751B002BF8D12000FFF782
:1037000077FF2378002B11D03D202E21202206E0C8
:10371000FE2B15D1217063780134002B06D0FF2BCE
:10372000F6D1227063780134002BF8D180BCB84602
:10373000F0BD0770D7E73D2BD5D143460370D2E7E4
:10374000FD2BE8D12070E6E7114B01001B6800203B
:103750001A78FF2A0BD0002A0AD15A78002A06D0FC
:103760005A1C994203D313001A78FF2AF3D17047E9
:10377000012A04D1013301309942F8D9F4E7022A31
:1037800001D10333F0E7032AEAD10533ECE7C04661
:10379000CCC90320F0B5DE46574645464E46E0B557
:1037A00093B019001C9B82469846002310009B464C
:1037B000002940DB002399466B4606000D000124DA
:1037C000DF1C09E03032D2B23A55A94512D001349B
:1037D000422C3BD006000D00424600233000290059
:1037E0004FF01AFCD2B2092AECD93732D2B23A558C
:1037F000A945ECD1B045EAD9013C5B46002B05D088
:103800002D23524613702C3B9C46E244534601AA9A
:103810001219013418191178013A197001338342D1
:10382000F9D100235246135513B0F0BCBB46B24643
:10383000A946A046F0BD43460A2BBBD113000C009D
:1038400000215842A14101239B46B3E7023CD4E743
:103850000FB4F0B5D6464F464646C0B58B4B8C4CA0
:103860001A68A5448C9D002A01D110321A6080226A
:1038700004AE00213000920052F010FC2B78002B97
:1038800000D0B6E0834A3100924602E0881B3E2811
:1038900007DC1000013103700B78013214007E2B1D
:1038A000F4D9002323707C4B1B68002B00D0CDE0A3
:1038B0007A4B7B4F98461B68012B00DD8EE0794EDA
:1038C000794C3168002975D00B78012B00D1D7E0F5
:1038D000764C774B6079257900020543A079E2792F
:1038E0000004994605431B6812062A439A18914220
:1038F00020D21A781800FF2A02D11BE05A7801332F
:10390000002AFBD1994200D8BEE05A78002A00D1A3
:10391000BAE0012A02D1581C9A7803000133202A08
:1039200003D15A780133202AFBD0032A00D19FE02B
:10393000FF2AE5D15F4D3168280007F031FB2B7875
:10394000202B03D16B780135202BFBD043461B681D
:103950005948012B00DC5948FCF7EAFD61792379CD
:10396000A27909021943120411434A46E379126805
:103970001B060B433068D318984274D2FFF7E4FE5D
:103980000A21494C0200C31700912000FFF702FFF3
:103990002000FCF7CDFD3268494B1A600022494BEC
:1039A0001A604948FCF7C4FD2800FCF7C1FD380047
:1039B000FCF7BEFD4548FCF7BBFD53461B78002BCA
:1039C00010D13800FCF7B4FD802200212000520005
:1039D00052F064FB01213E4856F0A4FE3800FCF78B
:1039E000A7FD6CE73B48FCF7A3FD5046FCF7A0FDA4
:1039F000E7E78DAA1C000A27039206E0252C29D0B0
:103A0000F4546C780135002C11D0300057F002F8D6
:103A100003003018242C12D0402CEFD1039A6C787C
:103A2000111D126801350391F254002CEDD1337849
:103A30007E2B00D826E7174B9A461C0031E7039BE4
:103A40001A1D1968039256F0DDFFDAE701212248BA
:103A500056F068FE039B1A1D03921A680097D3174D
:103A6000FFF798FECDE71D48FCF762FD0E4C98E786
:103A70005A7802329B181A78FF2A00D040E759E79B
:103A80000B4B0A4C994655E7306053E798C7032023
:103A9000F0FDFFFF54C70320B0C9032050C7032027
:103AA0009C0906107C390320BCE50320ACC7032029
:103AB000CCC9032028F30320D0E90510D4E9051070
:103AC00058CA032054CA0320E0E90510E4E90510B0
:103AD00000EC0320ECE90510CCB90320D8E905106F
:103AE00010B5264B040018680378002910D1002B6C
:103AF00028D0012B2BD0022B39D1837841781B029F
:103B00000B435BBA9BB29C4227DC10BD437801306B
:103B1000002B08D14378002BF9D1194B9C42F4D0EB
:103B20001848FFF795FE012B14D0022B18D183788B
:103B300041781B020B435BBA9BB2A342E5D0C3782A
:103B40000330E5E74378002BDFD00130CFE743783F
:103B50000130CCE743780130DAE7C3780330C6E7B9
:103B6000032BD3D143780233C0180378D0E7032B5B
:103B7000EDD143780233C0180378B8E7CCC90320ED
:103B8000E9FD0000F0E90510F0B5DE4657464E4667
:103B90004546E0B583B0019303789446FF2B2ED0C1
:103BA000544D554AAB46554D1478AA460325A946AF
:103BB000534A1678534A12789046534A012B45D1FE
:103BC000106043780130022B04D1C378033001E048
:103BD00043780130202BFBD0032B57D05FB2002F4E
:103BE000ECDA9C4203D09E4201D098453CD1FF299B
:103BF00057DD019D002D00D076E0FF2BDED10322A2
:103C0000031D934362461360FF2961DD00203E4A95
:103C100010601A68501C0FD003203C4D0F2A03D8A7
:103C20001C009200083454515A6804328243043212
:103C30009B181A68541CF1D1080003B0F0BCBB46B5
:103C4000B246A946A046F0BD43780130002BFBD117
:103C500003005B780130002B0FD0012BB3D1AFE70D
:103C600038000131002BF3D043780130002BEFD026
:103C700043780130002BF7D1EAE743780130002B7D
:103C8000BDD143780130002BF7D0B8E74378023339
:103C9000C0180378202BA1D143780130202BFBD012
:103CA0009CE75D468B0058514378471C202B03D17D
:103CB0007B780137202BFBD050464D46C05C054237
:103CC000CED15F2B09D00198002810D1380094E79D
:103CD000002408488A00145098E7380043780130DF
:103CE0000131002BC4D1B3E70948FFF7B1FD094802
:103CF000FFF7AEFD08EF0320B0F4032001760710B4
:103D0000A8F403209FF403207C390320EC9B0020BF
:103D1000FCE9051020EA0510F0B5DE4657464E4690
:103D20004546E0B504002422002185B03F4852F00A
:103D3000B5F900233E4A002113603E4A13603E4B12
:103D400018682300FFF720FF002C64D03B4B0327AB
:103D50000293002303933A4B01933A4B9C46029BF8
:103D60001B689A46002B56D08022039B52000133D9
:103D7000039393424FD0029B9946072398464B46A4
:103D80005A68002A40D05146019B4D1C19604B785F
:103D9000202B03D16B780135202BFBD05178561C9A
:103DA000202903D1717801362029FBD00024B346A5
:103DB00018E05F2B1CD06046405C2E2B06D0464698
:103DC000064203D15F2901D02E292BD13A40022A85
:103DD00000D1203B3840013402280CD08B420DD159
:103DE0005B46195D624640462B5DD25C1042E0D0D6
:103DF0006046405CEAE720398B42F1D004239B46C1
:103E0000114BD9449945BAD1029B043302931B68E4
:103E10009A46002BA8D105B0F0BCBB46B246A946D5
:103E2000A046F0BD0948FFF713FDC046089C0020DE
:103E30002836032024360320CCC9032008EF0320B2
:103E40007C3903200176071004F3032034EA0510BF
:103E5000F0B54E4657464546DE46E0B5A5B01F00D4
:103E60002EAB1B7880465BB216009946309C002F23
:103E700000DA84E0002B65DB002300932F9B002BEE
:103E800000DA94E000230193002335009B460126CD
:103E9000A2460DE04324303202ABD2B21B199A5530
:103EA000BB4516D00136422E00D170E005000F0050
:103EB00052460023280039004FF0AEF8D2B2092A4A
:103EC000E8D94324373202ABD2B21B199A55BB450D
:103ED000E8D1AA45E6D9013E019B02AC2500002BA2
:103EE00002D02D23651C23702B0013AA92190136D2
:103EF000A8191178013A197001339842F9D10023B9
:103F0000AB552F9B2000DA179E18564056F082FDC5
:103F1000351A002D29DC009B002B08D001254B46CB
:103F2000302B54D04544A846009A6B1E1A702100CD
:103F3000404656F067FD25B0F0BCBB46B246A946E8
:103F4000A046F0BD4946C8170918414049B2894604
:103F5000310000237242BB41394331D00A2C2FD1AA
:103F60002D2300932C3B01938EE7320049464046B7
:103F700052F094F8009B002BD1D1A844D7E70A2C2B
:103F800007D0002B05DB0023009301937CE7023E62
:103F9000A2E732003B00002756429F414B46DA170A
:103FA0009B1853405BB299462D2300936AE7230088
:103FB0000A3B5A4253412B225B421A40009261E76E
:103FC0001F002D2300930023160001935CE7434656
:103FD000009AA8441A70AAE7F0B5DE4657464E4646
:103FE0004546E0B515007F221C0085B010AB1B785C
:103FF00081461A40934600230022280021004FF0FA
:104000008BFA00239A46002800D1A1E00F9B002BD9
:1040100000DAB8E01A00AD4B9A4200D117E1002354
:104020009A460F9B002B00D01CE10026A84F0022CF
:104030000023280021004FF08DFA002807D0280027
:10404000210032003B004FF0FDF905000C0000227A
:104050000023280021004FF067FA002807D028002D
:10406000210032003B004FF0E4F905000C0028006D
:1040700021004FF09FFA002808D1002200232800D9
:1040800021004FF051FA002800D0CAE0280021009A
:104090004FF0E4FA0B000A2102910E9902000191FF
:1040A000594648460091FFF7D3FE484656F0B2FC09
:1040B000002281440023280021004FF035FA002817
:1040C00000D0BFE00F9B002B3ED001234B444A465B
:1040D0009B462E232100137028004FF0F3FE0B00A7
:1040E0000200210028004FF0A4F90F9B5C46013329
:1040F0004B4498460022774B4FF0CBF906000F0057
:104100004FF0E0FE4FF056FA05004FF03BFA303525
:1041100002000B00300039004FF08BF9257001349C
:10412000A045E7D10F9B5B441C005346002B08D1F0
:1041300009E0631E1A782E2A00D1BEE0302A02D18F
:104140001C004C45F5D8A14600234A46137061E097
:10415000660076082800310050F03CF84FF0B2FEBF
:104160004FF028FA310082465B4A28005B4B4FF043
:10417000DBF9002800D187E0544B0F9A9A4202D015
:10418000002A00DB4BE750464FF0FCF902000B0021
:104190000020504950F02AF802000B0028002100AE
:1041A0004FF059F900224B4B06000F004FF0CAF9AF
:1041B00000280AD030003900464B00224FF04BF95E
:1041C00001239C4606000F00E2445B4602930F9BCE
:1041D0004846DA179C180E9B5440009332003B006F
:1041E0000194FFF7F9FE484656F014FC6523484455
:1041F00003705346002B51DB2B230A224370534696
:104200000292083A01922E320092DB175246023097
:10421000FFF71EFE05B0F0BCBB46B246A946A0465D
:10422000F0BD0A2302930E9B484601935B465B4216
:104230005BB2002200930023FFF70AFE484656F0C7
:10424000E9FB814480231B069C4664443AE709232A
:1042500052469B1A0F9332D401239A460F9B002B90
:1042600000D1E2E618004FF08DF902000B000020AB
:1042700018494FF0BBFF02000B00002014494FF01B
:10428000EAF806000F00D2E6002228003100144BA5
:104290004FF058F9002800D06EE7B7E62D230A2129
:1042A00043705346029108395A4201912E31D31777
:1042B00002300091FFF7CCFDACE7994644E70123BB
:1042C0009A4600230026024F0F93B0E6E703000052
:1042D0000000E03F000024402D431CEBE2361A3F73
:1042E00080842E41F0B5D6464F4646460024C0B5E0
:1042F0002AF090FC374B1C60374B1A68374B1A601A
:10430000374B384A1C60384B1C60384B1C60384BAC
:104310001C6001231360374A1460374A1470374A0F
:10432000137008F0D1FD364B1C60364B1C60364BC9
:104330001C7008F00DFA012008F0A8F9002059F0CF
:1043400063FD8022314B00211C60314BD2001C6088
:10435000304B31481C6051F0A1FE352234232F4CE4
:10436000A15CE35C090219433623E25C0133E35CA0
:10437000120411431B060B43012B25DD34239A46FF
:10438000013399460133342501269846244F386875
:1043900034220021401951F081FE00223868013694
:1043A0004319DA855A624A465346A15CE35C090226
:1043B00019434346E25C3723E35C120411431B06B6
:1043C00034350B43B342E3DCE0BCBA46B146A84601
:1043D000F0BDC0469CC70320CCC90320A0C7032062
:1043E00080DB0320B0CB0320C4D603208CDB03206A
:1043F00044C7032044C0032097F4032090F4032013
:10440000B0C9032098C7032054C7032050F40320E9
:10441000503903207C39032008EF0320ACC7032068
:1044200054390320F8B50122DE464E46454657462C
:10443000C54BE0B51A70C54BC54D99467C234A461D
:1044400000201360013B2B6008F020F9FFF74AFFC2
:104450000023C04A1168CB700B7111684B70126851
:10446000BD491370BD4A1360BD4A13600A220A6039
:10447000BC490A60BC4A29681360BC4A0139136010
:10448000BB4A1360BB4A1360002901DC00F089FCC1
:10449000B94800248046B94B0C229246A446013408
:1044A000D044A14201D100F07CFC4246126815784C
:1044B0005D5D742DF0D1B24D07E06F785678DF5D09
:1044C0009E5D01350132B742E6D11678002EF4D157
:1044D0006246AC4D81322A7000229446AA4A0500F9
:1044E000934601229046E246C4440C35614501D111
:1044F00000F057FC2A6816789E5D652EF1D15E4665
:1045000007E0747857781C5DDF5D01360132BC42EC
:10451000E7D11778002FF4D152469C4E8132327089
:1045200000220500944601229046E246C4440C3520
:10453000614501D100F035FC2A6816789E5D672E32
:10454000F1D1934E07E0747857781C5DDF5D01363A
:104550000132BC42E7D11778002FF4D152468D4E7C
:104560008132327000220500944601229046E246D4
:10457000C4440C35614501D100F013FC2A6816785B
:104580009E5D3D2EF1D1844E07E0747857781C5D16
:10459000DF5D01360132BC42E7D11778002FF4D13C
:1045A00052467E4E8132327000220500944601222E
:1045B0009046E246C4440C35614501DC00F0F1FB55
:1045C0002A6816789E5D742EF1D1754E07E07478D6
:1045D00057781C5DDF5D01360132BC42E7D11778A8
:1045E000002FF4D15246844600246E4E8132327040
:1045F0000C229046A2460134C444A14200DCD0E320
:104600006246126816789E5D732EF1D1664E07E001
:10461000757857785D5DDF5D01360132BD42E7D1C7
:104620001778002FF4D15246604E8132327000224A
:104630000500944601229046E246C4440C3561458B
:1046400000DCAEE32A6816789E5D772EF2D1584ED4
:1046500007E0747857781C5DDF5D01360132BC429B
:10466000E8D11778002FF4D15246524E8132327081
:1046700000220500944601229046E246C4440C35CF
:10468000614500DC8DE32A6816789E5D752EF2D1B7
:10469000494E07E0747857781C5DDF5D01360132C2
:1046A000BC42E8D11778002FF4D15246434E8132F4
:1046B000327000220500944601229046E246C4442E
:1046C0000C35614500DC6CE32A6816789E5D672E28
:1046D000F2D13B4E07E0747857781C5DDF5D013600
:1046E0000132BC42E8D11778002FF4D152460024A1
:1046F000344E8132327005006122A446612A00D016
:1047000045E32A68304E08E0747857781C5DDF5D19
:1047100001360132BC4200D039E31778002FF3D1C3
:1047200064462A4A80341470294A00249446A046DC
:1047300001340C30A14200DC33E302681778DF5DFE
:10474000662FF4D167464DE090F403203C370320F8
:10475000F4CB0320CCC90320189B0020B4C903204C
:1047600004D30320149B002058CA032054CA0320FA
:10477000D0C9032018CE032030FC051060F50510C9
:10478000C0F30510C7F40320C8F30510C1F40320DB
:10479000D0F30510C5F40320D8F30510C2F40320AC
:1047A000DCF30510C8F40320E0F30510C6F4032081
:1047B000E8F30510CAF40320F0F30510C9F4032050
:1047C000F8F30510C4F4032000F40510C0F403202E
:1047D00004F405107D7856785D5D9E5D01370132E9
:1047E000B542A4D11578002DF4D14246C349813297
:1047F0000A704A4611680139002900DCD1E2002222
:10480000BF489046060001229246C146D0440C366D
:10481000884500D1C5E2326814781C5D6C2CF2D159
:10482000B84C07E0657857785D5DDF5D0134013293
:10483000BD42E8D11778002FF4D14A46B24C8132FC
:10484000227000220600904601229146C246C844CA
:104850000C36884500D1A4E2326814781C5D692CBE
:10486000F2D1AA4C07E0657857785D5DDF5D0134D1
:104870000132BD42E8D11778002FF4D1524680466C
:104880000025A34C813222700C229146AA460135A4
:10489000C8448D4200D184E24246126814781C5DFF
:1048A000652CF1D19B4C07E0667857789E5DDF5D03
:1048B00001340132BE42E7D11778002FF4D15246BD
:1048C000954C8132227000220600904601229146CA
:1048D000C246C8440C36884500D162E2326814787A
:1048E0001C5D652CF2D18D4C07E0657857785D5DD5
:1048F000DF5D01340132BD42E8D11778002FF4D1D9
:104900005246874C813222700022060090460122D6
:104910009146C246C8440C36884500DB41E2326805
:1049200014781C5D652CF2D15C4607E065785778F9
:104930005D5DDF5D01340132BD42E8D11778002FA3
:10494000F4D1524680460026764C813222700C22E9
:104950009246B1460136D0448E4200DB21E2424607
:10496000126814781C5D732CF1D16F4C07E06778E6
:104970005578DF5D5D5D01340132AF42E7D11578D6
:10498000002DF4D14A4680460026684C81322270C0
:104990000C229246B1460136D0448E4200DB00E242
:1049A0004246126814781C5D632CF1D1604C07E01C
:1049B00067785578DF5D5D5D01340132AF42E7D144
:1049C0001578002DF4D14A4680460026594C813294
:1049D00022700C229246B1460136D0448E4200DB52
:1049E000DFE14246126814781C5D632CF1D1524C11
:1049F00007E067785578DF5D5D5D01340132AF42D5
:104A0000E7D11578002DF4D14A46804600264B4C5C
:104A1000813222700C229246B1460136D0448E4239
:104A200000DBBEE14246126814781C5D652CF1D1B2
:104A3000434C07E067785578DF5D5D5D01340132F6
:104A4000AF42E7D11578002DF4D14A4680460026C2
:104A50003C4C813222700C229246B1460136D04441
:104A60008E4200DB9DE14246126814781C5D732C77
:104A7000F1D1354C07E067785578DF5D5D5D013435
:104A80000132AF42E7D11578002DF4D14A46804675
:104A900000262E4C813222700C229246B1460136FD
:104AA000D0448E4200DB7CE14246126814781C5DE3
:104AB000662CF1D1264C07E067785578DF5D5D5DA7
:104AC00001340132AF42E7D11578002DF4D14A46C6
:104AD000804600261F4C813222700C229246B1463D
:104AE0000136D0448E4200DB5BE142461268147806
:104AF0001C5D6C2CF1D1184C38E0C046C3F4032087
:104B000060F6051008F40510ACF403206C080610DC
:104B1000A9F4032010F40510A4F4032018F40510E0
:104B2000A2F40320A1F4032020F40510AEF4032026
:104B30002CF405109DF4032034F405109EF403209A
:104B400040F40510A6F4032060F40510B0F403202F
:104B500068F40510A8F403204CF405106778557824
:104B6000DF5D5D5D01340132AF42B6D11578002DB5
:104B7000F4D14A46804600268B4C813222700C22AA
:104B80009246B1460136D0448E4200DB09E14246EE
:104B9000126814781C5D732CF1D1844C07E067789F
:104BA0005578DF5D5D5D01340132AF42E7D11578A4
:104BB000002DF4D14A46804600267D4C8132227079
:104BC0000C229246B1460136D0448E4200DBE8E02A
:104BD0004246126814781C5D652CF1D1754C07E0D3
:104BE00067785578DF5D5D5D01340132AF42E7D112
:104BF0001578002DF4D14A46804600266E4C81324D
:104C000022700C229246B1460136D0448E4200DB1F
:104C1000C7E04246126814781C5D652CF1D1674CE0
:104C200007E067785578DF5D5D5D01340132AF42A2
:104C3000E7D11578002DF4D14A4680460026604C15
:104C4000813222700C229246B1460136D0448E4207
:104C500000DBA6E04246126814781C5D642CF1D19A
:104C6000584C07E067785578DF5D5D5D01340132AF
:104C7000AF42E7D11578002DF4D14A468046002690
:104C8000514C813222700C229246B1460136D044FA
:104C90008E4200DB85E04246126814781C5D662C6B
:104CA000F1D1644607E067785578DF5D5D5D0134DA
:104CB0000132AF42E7D11578002DF4D14A4684463F
:104CC0000027424C813222700C229146B8460137AF
:104CD000CC448F4265DA6246126814781C5D6E2CF3
:104CE000F2D13B4C07E0667855789E5D5D5D0134FE
:104CF0000132AE42E8D11578002DF4D14246844607
:104D00000027344C813222700C229146B84601377C
:104D1000CC448F4245DA6246126814781C5D692CD7
:104D2000F2D12D4C07E0667855789E5D5D5D0134CB
:104D30000132AE42E8D11578002DF4D14246002769
:104D4000264C81322270BC4601370C308F4228DA63
:104D5000026814781C5D632CF5D1214C07E066785D
:104D600055789E5D5D5D01340132AE42EBD1157820
:104D7000002DF4D163461B4A81330120137007F0E4
:104D800085FCF0BCBB46B246A946A046F8BD012250
:104D90009046C4440C35614503DD2A6812789A5C5C
:104DA000ACE41148FEF754FDABF4032054F40510B5
:104DB000AFF403205CF40510A5F4032064F405109F
:104DC000A3F4032074F40510A0F40320A7F4032037
:104DD00078F40510ADF4032080F40510AAF4032044
:104DE00060E305109FF4032088F4051010B500203F
:104DF00007F04CFCFFF776FA00230D4A1168CB70E0
:104E00000B7111684B7012680A4913700A4A1360DB
:104E10000A4A13600A220A6009490A60094A1360B3
:104E2000094A1360094A1360094A136010BDC0465D
:104E3000CCC90320189B0020B4C9032004D303204D
:104E4000149B002058CA032054CA0320D0C9032051
:104E500018CE0320F0B5C646164B80461F6800B535
:104E6000013F002F23DD144903780026CB5C134D4E
:104E70009C463F239C4512D142462B6807E054785C
:104E800058780C5D085C01320133844207D11878F0
:104E90000028F4D13000803080BCB846F0BD013627
:104EA0000C35BE4203D02B681B78CB5CE2E704488C
:104EB000FEF7CEFC3C37032060F5051060F60510C8
:104EC00088F40510F0B5C646164B80461F6800B53D
:104ED000013F002F23DD144903780026CB5C134DDE
:104EE0009C4661239C4512D142462B6807E05478CA
:104EF00058780C5D085C01320133844207D1187880
:104F00000028F4D13000803080BCB846F0BD0136B6
:104F10000C35BE4203D02B681B78CB5CE2E704481B
:104F2000FEF796FCF4CB032060F5051030FC05106D
:104F300088F40510F0B54546DE4657464E46E0B5C6
:104F4000A94C05002378220089B0002B12D06021E3
:104F500020207F2607E033407F2B06D01370537844
:104F60000132002B06D01942F5D11070537801326E
:104F7000002BF8D120009D4A9D49FEF79DFB2000A3
:104F80009C4A9D49FEF798FB20009C4A9C49FEF7ED
:104F900093FB20009B4A9C49FEF78EFB20009B4A16
:104FA0009B49FEF789FB9B4B002D02D101221A7011
:104FB0000133227899460794202A00D024E3631C09
:104FC0001800017801332029FAD007900378924E17
:104FD000B346F65C4423334200D14FE25F46467845
:104FE000BE5D334200D149E28678BE5D334200D1D6
:104FF00044E2C678BE5D334200D13FE20679BE5D31
:10500000334200D13AE24679BE5D334200D135E207
:105010008679BE5D334200D130E2C679BE5D33424F
:1050200000D12BE2A24601231F000193002A7DD06C
:105030005646202A00D19EE0222A00D1E9E1272A03
:1050400000D13FE23A2A00D14AE25B469B5C5B0713
:1050500000D59BE02E2A00D198E0002F00D1EBE094
:105060003F2A00D161E130006C4958F0ADFD824625
:10507000002800D1A2E16A4B1D68013D002D00DC33
:10508000F2E2684B002498461F00674801340C3751
:10509000AC4200D1E8E23B681A78825C632AF5D121
:1050A000624A07E056785978865D415C01320133E7
:1050B0008E42EBD119780029F4D1012322004B4410
:1050C000803A9C46D3B24A46002113704246009370
:1050D00001310C32A94200D1C6E21368524E187851
:1050E000305C7228F4D19046514808E04E4A477827
:1050F0005E78D75D965D01300133B74239D11E78B5
:10510000002EF3D15346A14200D16DE25A46013B35
:105110001B78D35C9B0700D095E153461A78002397
:10512000E14656461F000193002A82D14B46013BBF
:105130001B780093202B10D13E4989450DD94B4651
:105140000020023B023902E0013B994204D01A7868
:105150005C1C5870202AF7D0A14600234A461370E1
:105160005370937009B0F0BCBB46B246A946A04646
:10517000F0BD4246ACE74B461A7001239C4672785C
:10518000E1440136002A00D053E7CFE70421202074
:1051900002244B465D46AD5C294217D12E2A19D018
:1051A00015008543452D03D0994600231F00E9E7EC
:1051B0001A70727815002B3DA543EDB2002D0ED06C
:1051C0005D46AD5C013601332942E7D015008543C9
:1051D000452DEDD01A70727801330136DAE75A7036
:1051E000B27802330236D5E7BCE50320D0F40510CF
:1051F000D8F40510E4F40510E8F40510ECF40510FB
:10520000F0F40510F4F4051008F5051018F5051074
:105210002CF5051028F30320017607103CF5051046
:105220003C37032060F6051060F50510A8F4051062
:10523000C0F405102BF30320B94B1B68013B00930E
:10524000002B00DC66E1B74BBC469A460323984628
:105250004B465546B146B44802934B46AA46079082
:1052600001781A785C46A65C444615003440022C4E
:1052700000D1203D5C464746645C3C400F00022C58
:1052800000D1203FBD4210D100291CD00130079031
:1052900001785C1C5A7823002829E3D1202AE1D127
:1052A0005A780133202AFBD0DCE7554600290BD081
:1052B00001239A46009BD4449C4562D00C239A4615
:1052C00028685544C9E755460138017858460724EF
:1052D000405C04420BD15F2909D02139C9B20D29A4
:1052E0000CD89248C84001000120884306D107210C
:1052F0003142DDD15F2ADBD02E2AD9D0029A67460F
:10530000914639004A4680311170501C884A127803
:105310008A4200D146E1874A814612781E00521A1D
:10532000514251411A780F002CE7834B1D68013D13
:10533000002D00DC98E1814B002498461F00B44604
:105340007F4801340C37AC4200D18DE13B681A78BC
:10535000825C702AF5D17B4A07E056785978865DE1
:10536000415C013201338E42EBD119780029F4D12E
:10537000664670782038434258413018431C9A469C
:105380009BE6029B4E46994659463378C95C1A0003
:10539000880764D04B46072005E059461A7072789A
:1053A0000136895C01330842F7D15F2AF5D02E2AF5
:1053B000F3D0994600231F000193E3E630006249D1
:1053C00058F002FC8246002800D1C3E05A4B1D6809
:1053D000013D002D00DC47E1584B002498461F009A
:1053E000574801340C37A54200D13DE13B681A789B
:1053F000825C652AF5D1554A07E056785978865D72
:10540000415C013201338E42EBD119780029F4D18D
:1054100053E633004A4601E0002809D01900140081
:1054200008780133207048781E0001322228F3D119
:10543000A01C8146222010701A78222A00D0A1E6F2
:105440008A788E1C9EE653461A78202A00D066E69B
:105450005A785E1C0023E1461F00019392E65F2B01
:1054600098D0282B26D04A46137001239C4600234F
:1054700072781F00E1440136019383E65B465B5C72
:105480005B0700D4CEE50A2207A956F0B9FD002D2E
:105490000CD12F4A431E934208D84A460223137068
:1054A0000312537003239C469070E144079B9A4675
:1054B0001A78B8E54B46013B07931B78202B77D031
:1054C0003378D0E74B4631001800013102701000EC
:1054D0000A780133002AF7D199460090030029E6A3
:1054E0004B464A46591C002313707278731C3A2AA3
:1054F00000D0B4E01E00202400200B000C70013608
:10550000587032788D1C29003A2AF6D00123A9461A
:105510001F0037E6002B00D136E70023F1E6C04636
:10552000F4CB03203CFC0510C4F405101920000046
:10553000C7F40320C1F403203C37032060F60510B4
:1055400060F50510A0F4051044F5051018F40510D9
:10555000E8FD00003000C14958F036FB82460028C3
:1055600055D0BF4B1D68013D002D7DDDBD4B002496
:1055700098461F00BC4801340C37AC4274D03B68DD
:105580001A78825C652AF6D1B84A07E056785978CD
:10559000865D415C013201338E42ECD119780029DD
:1055A000F4D18AE51E001A78012381461F00E9E53F
:1055B0004B469A1E11001378013A202BFAD05A4616
:1055C000D25C079152070BD15F2B09D0213BDBB294
:1055D0000D2B00D974E7A64ADA40D30700D46FE751
:1055E0004B1C994633783EE71B7851466246002BA8
:1055F0003DD010000131037000930B780132002B75
:10560000F7D19146009B95E511002000DEE43000C3
:10561000984958F0D9FA824600282BD0904B1D6843
:10562000013D002D20DD8F4B002498461F008E4841
:1056300001340C37AC4217D03B681A78825C652A7B
:10564000F6D18D4A07E056785978865D415C013283
:1056500001338E42ECD119780029F4D12DE51E00DA
:10566000012389461F008DE58448FEF7F1F8E146E5
:10567000009B5FE53000824958F0A6FA8246002878
:1056800021D0774B1D68013D002DEDDD754B0024C9
:1056900098461F0001340C37AC42E5D03B68724994
:1056A0001A788A5C692AF5D1764A08E06E4E5078FD
:1056B0005978305C715C013201338842EAD1197843
:1056C0000029F3D1F9E4664B1D68013D002D48DD4A
:1056D0006D4B012498460023049303934346644290
:1056E000A0461C00694802945446370001008246D7
:1056F000079002783378009458460324C05C9C4697
:10570000044005902000022C02D1223884469C449B
:1057100058460324805C04401000022C00D120383D
:10572000644684426DD1002A7AD0202A5CD00137A9
:10573000013107910A783B78282ADDD1202BDBD173
:10574000029B009C9C467B780137202BFBD0604657
:1057500000940290D0E74446424B9846631C00D028
:10576000ABE4019B002B20D05A463378D25C9207E1
:1057700002D15F2B00D074E63000741C2200072792
:105780000794203000E01A0059461378C95C0F4294
:1057900003D15F2B01D02E2B05D1531C07938342DD
:1057A000F1D1537802003A2B72D05A463378D25C4A
:1057B000920702D15F2B00D053E60121300058F050
:1057C0004BFA079002780300202A06D10133079391
:1057D00001335A1E1278202AF9D03D2A00D197E0D1
:1057E0005B463278995CD5E5202BA1D1029B009CC9
:1057F0009C467B780137202BFBD0634600940293B4
:1058000096E7009C50468C46A246029C002A0CD08B
:10581000039B013303939D429DD0A0680C3462E743
:10582000009A50468C469246029C072205990A40EF
:10583000009207220A4200D09EE05F2B00D19BE03D
:105840002E2B00D198E055F0E5F8049B9842DFD963
:10585000039BBA4698460490DAE7C0464CF505101B
:105860003C37032060F6051060F5051010F40510B4
:105870001920000054F50510B0F4051088F4051047
:105880005CF50510B8F4051064F60510BCF40510BD
:105890004B46032049464F4618700231931B0D00BA
:1058A0007B70002B2CDD35000D43284045426841BC
:1058B0000D1B0224AC42A4416442044255D0581E40
:1058C000082852D900209C08A40035580D500430F7
:1058D0008442FAD103201C008443200036191D1A8B
:1058E0000C19984209D030782070012D05D07078BD
:1058F0006070022D01D0B078A0701600CD18541C35
:10590000019B72781F000023A9462600019339E409
:10591000002D00DCA8E6234B0027984622490C23E3
:105920009A46BC460137D044BD4200D19CE643466E
:105930001B681A788A5C6C2AF1D11C4A07E05478FB
:1059400058780C5D085C013201338442E7D1187845
:105950000028F4D163464A46813313705B4632789F
:10596000995C01239C46E14414E50020345C0C540E
:1059700001308342FAD1C0E7402221780A4200D1A7
:1059800046E7614601390978282900D15BE7009A8A
:10599000002A00D03CE75F2B00D139E72E2B00D145
:1059A00036E750E760F6051060F50510CCF40510F9
:1059B000F8B5DE4657464E4645468946E0B50524CD
:1059C00005004BF071FA4B4683461C5718793C4B47
:1059D000EE1873425E413B4B9846B3009A464346ED
:1059E00052469F580122202382401B1A013A002C64
:1059F0004ADB9C423DDC1300A3401F4239D1A24048
:105A000017422CD100281DD04B465A781978120223
:105A100011434A46D67800229B7836061B040B4376
:105A20001E435300F15A4B0B00D1091913191233BD
:105A30009B00013259519042F3D801238340013B2E
:105A4000A3401F434346524658469F504BF038FAF6
:105A50002000F0BCBB46B246A946A046F8BD1A4E8F
:105A60003000FDF7F5FE434652469F584B461879E5
:105A7000C8E7154E3000FDF7EBFE4B465B797F2BF8
:105A800010D801246442EBE7002B02DAF1E7013B76
:105A9000EFD3110099401C000F42F8D1A2401742E9
:105AA000B0D0DCE7434652469F584B460122187956
:105AB000012482406442013AA2401742A2D0CEE7BC
:105AC0000000D0AFD8D2032020020610F0B5012587
:105AD0008D400468AC434D0004606C18E400041968
